{
  "_format": "hh-sol-artifact-1",
  "contractName": "Escrow",
  "sourceName": "contracts/Escrow.sol",
  "abi": [
    {
      "inputs": [
        {
          "internalType": "address",
          "name": "_verifier",
          "type": "address"
        },
        {
          "internalType": "address",
          "name": "_reputationRegistry",
          "type": "address"
        }
      ],
      "stateMutability": "nonpayable",
      "type": "constructor"
    },
    {
      "anonymous": false,
      "inputs": [
        {
          "indexed": true,
          "internalType": "uint256",
          "name": "jobId",
          "type": "uint256"
        },
        {
          "indexed": true,
          "internalType": "address",
          "name": "client",
          "type": "address"
        },
        {
          "indexed": false,
          "internalType": "uint256",
          "name": "amount",
          "type": "uint256"
        }
      ],
      "name": "EscrowFunded",
      "type": "event"
    },
    {
      "anonymous": false,
      "inputs": [
        {
          "indexed": true,
          "internalType": "uint256",
          "name": "jobId",
          "type": "uint256"
        },
        {
          "indexed": true,
          "internalType": "address",
          "name": "client",
          "type": "address"
        },
        {
          "indexed": false,
          "internalType": "uint256",
          "name": "amount",
          "type": "uint256"
        }
      ],
      "name": "EscrowRefunded",
      "type": "event"
    },
    {
      "anonymous": false,
      "inputs": [
        {
          "indexed": true,
          "internalType": "uint256",
          "name": "jobId",
          "type": "uint256"
        },
        {
          "indexed": true,
          "internalType": "address",
          "name": "freelancer",
          "type": "address"
        },
        {
          "indexed": false,
          "internalType": "uint256",
          "name": "amount",
          "type": "uint256"
        }
      ],
      "name": "EscrowReleased",
      "type": "event"
    },
    {
      "inputs": [
        {
          "internalType": "uint256",
          "name": "",
          "type": "uint256"
        }
      ],
      "name": "escrows",
      "outputs": [
        {
          "internalType": "uint256",
          "name": "jobId",
          "type": "uint256"
        },
        {
          "internalType": "address",
          "name": "client",
          "type": "address"
        },
        {
          "internalType": "address",
          "name": "freelancer",
          "type": "address"
        },
        {
          "internalType": "uint256",
          "name": "amount",
          "type": "uint256"
        },
        {
          "internalType": "enum Escrow.EscrowStatus",
          "name": "status",
          "type": "uint8"
        }
      ],
      "stateMutability": "view",
      "type": "function"
    },
    {
      "inputs": [
        {
          "internalType": "uint256",
          "name": "jobId",
          "type": "uint256"
        },
        {
          "internalType": "address",
          "name": "freelancer",
          "type": "address"
        }
      ],
      "name": "fundEscrow",
      "outputs": [],
      "stateMutability": "payable",
      "type": "function"
    },
    {
      "inputs": [
        {
          "internalType": "uint256",
          "name": "jobId",
          "type": "uint256"
        }
      ],
      "name": "getEscrow",
      "outputs": [
        {
          "components": [
            {
              "internalType": "uint256",
              "name": "jobId",
              "type": "uint256"
            },
            {
              "internalType": "address",
              "name": "client",
              "type": "address"
            },
            {
              "internalType": "address",
              "name": "freelancer",
              "type": "address"
            },
            {
              "internalType": "uint256",
              "name": "amount",
              "type": "uint256"
            },
            {
              "internalType": "enum Escrow.EscrowStatus",
              "name": "status",
              "type": "uint8"
            }
          ],
          "internalType": "struct Escrow.EscrowRecord",
          "name": "",
          "type": "tuple"
        }
      ],
      "stateMutability": "view",
      "type": "function"
    },
    {
      "inputs": [],
      "name": "owner",
      "outputs": [
        {
          "internalType": "address",
          "name": "",
          "type": "address"
        }
      ],
      "stateMutability": "view",
      "type": "function"
    },
    {
      "inputs": [
        {
          "internalType": "uint256",
          "name": "jobId",
          "type": "uint256"
        }
      ],
      "name": "refundEscrow",
      "outputs": [],
      "stateMutability": "nonpayable",
      "type": "function"
    },
    {
      "inputs": [
        {
          "internalType": "uint256",
          "name": "jobId",
          "type": "uint256"
        }
      ],
      "name": "releaseEscrow",
      "outputs": [],
      "stateMutability": "nonpayable",
      "type": "function"
    },
    {
      "inputs": [],
      "name": "reputationRegistry",
      "outputs": [
        {
          "internalType": "address",
          "name": "",
          "type": "address"
        }
      ],
      "stateMutability": "view",
      "type": "function"
    },
    {
      "inputs": [
        {
          "internalType": "address",
          "name": "_registry",
          "type": "address"
        }
      ],
      "name": "setReputationRegistry",
      "outputs": [],
      "stateMutability": "nonpayable",
      "type": "function"
    },
    {
      "inputs": [
        {
          "internalType": "address",
          "name": "_verifier",
          "type": "address"
        }
      ],
      "name": "setVerifier",
      "outputs": [],
      "stateMutability": "nonpayable",
      "type": "function"
    },
    {
      "inputs": [],
      "name": "verifier",
      "outputs": [
        {
          "internalType": "address",
          "name": "",
          "type": "address"
        }
      ],
      "stateMutability": "view",
      "type": "function"
    },
    {
      "stateMutability": "payable",
      "type": "receive"
    }
  ],
  "bytecode": "0x6080604052348015600f57600080fd5b50604051610bb6380380610bb6833981016040819052602c916081565b600180546001600160a01b039384166001600160a01b031991821617909155600280548216331790556003805492909316911617905560af565b80516001600160a01b0381168114607c57600080fd5b919050565b60008060408385031215609357600080fd5b609a836066565b915060a6602084016066565b90509250929050565b610af8806100be6000396000f3fe6080604052600436106100955760003560e01c80635437988d116100595780635437988d146101a15780637d19e596146101c15780638da5cb5b146101ee578063c8db44e31461020e578063ed6531641461022e57600080fd5b8063012f52ee146100a157806314e8820f146101145780632b7ac3f314610129578063356f9dfd146101615780633f0ce7141461018157600080fd5b3661009c57005b600080fd5b3480156100ad57600080fd5b506100fa6100bc366004610978565b6000602081905290815260409020805460018201546002830154600384015460049094015492936001600160a01b0392831693929091169160ff1685565b60405161010b9594939291906109c9565b60405180910390f35b610127610122366004610a21565b61024e565b005b34801561013557600080fd5b50600154610149906001600160a01b031681565b6040516001600160a01b03909116815260200161010b565b34801561016d57600080fd5b5061012761017c366004610978565b6103e4565b34801561018d57600080fd5b5061012761019c366004610a4d565b6105ac565b3480156101ad57600080fd5b506101276101bc366004610a4d565b610615565b3480156101cd57600080fd5b506101e16101dc366004610978565b61067e565b60405161010b9190610a6f565b3480156101fa57600080fd5b50600254610149906001600160a01b031681565b34801561021a57600080fd5b50600354610149906001600160a01b031681565b34801561023a57600080fd5b50610127610249366004610978565b610733565b6000828152602081905260409020600101546001600160a01b0316156102b35760405162461bcd60e51b8152602060048201526015602482015274457363726f7720616c72656164792065786973747360581b60448201526064015b60405180910390fd5b600034116102fc5760405162461bcd60e51b815260206004820152601660248201527526bab9ba1039b2b732103730ba34bb32903a37b5b2b760511b60448201526064016102aa565b6040805160a0810182528381523360208083019182526001600160a01b0385811684860190815234606086019081526000608087018181528a82529481905296909620855181559351600180860180549285166001600160a01b0319938416179055915160028087018054929095169190921617909255945160038401559051600483018054949593949193909260ff199092169184908111156103a2576103a2610991565b02179055505060405134815233915083907f4a2cd88ec7a748d5b20b3512d7249c67745777b219009075c745923684e9653d9060200160405180910390a35050565b600081815260208190526040902060018101546001600160a01b031633146104475760405162461bcd60e51b815260206004820152601660248201527513db9b1e4818db1a595b9d0818d85b881c99599d5b9960521b60448201526064016102aa565b6000600482015460ff16600281111561046257610462610991565b146104a35760405162461bcd60e51b8152602060048201526011602482015270115cd8dc9bddc81b9bdd08199d5b991959607a1b60448201526064016102aa565b60048101805460ff19166002179055600181015460038201546040516000926001600160a01b031691908381818185875af1925050503d8060008114610505576040519150601f19603f3d011682016040523d82523d6000602084013e61050a565b606091505b505090508061055b5760405162461bcd60e51b815260206004820152601a60248201527f4e617469766520746f6b656e20726566756e64206661696c656400000000000060448201526064016102aa565b600182015460038301546040519081526001600160a01b039091169084907feac97bc1917fcedc984e3d0671d4e83b359890323d5d1c2de32b28d17c356ced906020015b60405180910390a3505050565b6002546001600160a01b031633146105f35760405162461bcd60e51b815260206004820152600a60248201526927b7363c9037bbb732b960b11b60448201526064016102aa565b600380546001600160a01b0319166001600160a01b0392909216919091179055565b6002546001600160a01b0316331461065c5760405162461bcd60e51b815260206004820152600a60248201526927b7363c9037bbb732b960b11b60448201526064016102aa565b600180546001600160a01b0319166001600160a01b0392909216919091179055565b6106ad6040805160a0810182526000808252602082018190529181018290526060810182905290608082015290565b60008281526020818152604091829020825160a0810184528154815260018201546001600160a01b0390811693820193909352600280830154909316938101939093526003810154606084015260048101549091608084019160ff169081111561071957610719610991565b600281111561072a5761072a610991565b90525092915050565b6001546001600160a01b0316331461078d5760405162461bcd60e51b815260206004820152601960248201527f4f6e6c792076657269666965722063616e2072656c656173650000000000000060448201526064016102aa565b600081815260208190526040812090600482015460ff1660028111156107b5576107b5610991565b146107f65760405162461bcd60e51b8152602060048201526011602482015270115cd8dc9bddc81b9bdd08199d5b991959607a1b60448201526064016102aa565b60048101805460ff19166001179055600281015460038201546040516000926001600160a01b031691908381818185875af1925050503d8060008114610858576040519150601f19603f3d011682016040523d82523d6000602084013e61085d565b606091505b50509050806108ae5760405162461bcd60e51b815260206004820152601c60248201527f4e617469766520746f6b656e207472616e73666572206661696c65640000000060448201526064016102aa565b6003546001600160a01b031615610930576003805460028401549184015460405163475b919b60e01b81526001600160a01b039384166004820152602481019190915291169063475b919b90604401600060405180830381600087803b15801561091757600080fd5b505af115801561092b573d6000803e3d6000fd5b505050505b600282015460038301546040519081526001600160a01b039091169084907f6244ed823ca6be0f11bc890c3fafcf3c29cb23420c14243642e930b5e07e6d0a9060200161059f565b60006020828403121561098a57600080fd5b5035919050565b634e487b7160e01b600052602160045260246000fd5b600381106109c557634e487b7160e01b600052602160045260246000fd5b9052565b8581526001600160a01b038581166020830152841660408201526060810183905260a081016109fb60808301846109a7565b9695505050505050565b80356001600160a01b0381168114610a1c57600080fd5b919050565b60008060408385031215610a3457600080fd5b82359150610a4460208401610a05565b90509250929050565b600060208284031215610a5f57600080fd5b610a6882610a05565b9392505050565b600060a0820190508251825260018060a01b03602084015116602083015260018060a01b036040840151166040830152606083015160608301526080830151610abb60808401826109a7565b509291505056fea2646970667358221220617b160c1417935717c89c20a4d58633ba6dd23a0632ab957f8c6a45aae8720b64736f6c634300081e0033",
  "linkReferences": {},
  "deployedLinkReferences": {}
}