{
  "_format": "hh-sol-artifact-1",
  "contractName": "Escrow",
  "sourceName": "contracts/Escrow.sol",
  "abi": [
    {
      "inputs": [
        {
          "internalType": "address",
          "name": "_verifier",
          "type": "address"
        },
        {
          "internalType": "address",
          "name": "_reputationRegistry",
          "type": "address"
        }
      ],
      "stateMutability": "nonpayable",
      "type": "constructor"
    },
    {
      "anonymous": false,
      "inputs": [
        {
          "indexed": true,
          "internalType": "uint256",
          "name": "jobId",
          "type": "uint256"
        },
        {
          "indexed": true,
          "internalType": "address",
          "name": "client",
          "type": "address"
        },
        {
          "indexed": false,
          "internalType": "uint256",
          "name": "amount",
          "type": "uint256"
        }
      ],
      "name": "EscrowFunded",
      "type": "event"
    },
    {
      "anonymous": false,
      "inputs": [
        {
          "indexed": true,
          "internalType": "uint256",
          "name": "jobId",
          "type": "uint256"
        },
        {
          "indexed": true,
          "internalType": "address",
          "name": "client",
          "type": "address"
        },
        {
          "indexed": false,
          "internalType": "uint256",
          "name": "amount",
          "type": "uint256"
        }
      ],
      "name": "EscrowRefunded",
      "type": "event"
    },
    {
      "anonymous": false,
      "inputs": [
        {
          "indexed": true,
          "internalType": "uint256",
          "name": "jobId",
          "type": "uint256"
        },
        {
          "indexed": true,
          "internalType": "address",
          "name": "freelancer",
          "type": "address"
        },
        {
          "indexed": false,
          "internalType": "uint256",
          "name": "amount",
          "type": "uint256"
        }
      ],
      "name": "EscrowReleased",
      "type": "event"
    },
    {
      "inputs": [
        {
          "internalType": "uint256",
          "name": "",
          "type": "uint256"
        }
      ],
      "name": "escrows",
      "outputs": [
        {
          "internalType": "uint256",
          "name": "jobId",
          "type": "uint256"
        },
        {
          "internalType": "address",
          "name": "client",
          "type": "address"
        },
        {
          "internalType": "address",
          "name": "freelancer",
          "type": "address"
        },
        {
          "internalType": "uint256",
          "name": "amount",
          "type": "uint256"
        },
        {
          "internalType": "enum Escrow.EscrowStatus",
          "name": "status",
          "type": "uint8"
        },
        {
          "internalType": "address",
          "name": "usdcToken",
          "type": "address"
        }
      ],
      "stateMutability": "view",
      "type": "function"
    },
    {
      "inputs": [
        {
          "internalType": "uint256",
          "name": "jobId",
          "type": "uint256"
        },
        {
          "internalType": "address",
          "name": "freelancer",
          "type": "address"
        },
        {
          "internalType": "uint256",
          "name": "amount",
          "type": "uint256"
        },
        {
          "internalType": "address",
          "name": "usdcToken",
          "type": "address"
        }
      ],
      "name": "fundEscrow",
      "outputs": [],
      "stateMutability": "nonpayable",
      "type": "function"
    },
    {
      "inputs": [
        {
          "internalType": "uint256",
          "name": "jobId",
          "type": "uint256"
        }
      ],
      "name": "getEscrow",
      "outputs": [
        {
          "components": [
            {
              "internalType": "uint256",
              "name": "jobId",
              "type": "uint256"
            },
            {
              "internalType": "address",
              "name": "client",
              "type": "address"
            },
            {
              "internalType": "address",
              "name": "freelancer",
              "type": "address"
            },
            {
              "internalType": "uint256",
              "name": "amount",
              "type": "uint256"
            },
            {
              "internalType": "enum Escrow.EscrowStatus",
              "name": "status",
              "type": "uint8"
            },
            {
              "internalType": "address",
              "name": "usdcToken",
              "type": "address"
            }
          ],
          "internalType": "struct Escrow.EscrowRecord",
          "name": "",
          "type": "tuple"
        }
      ],
      "stateMutability": "view",
      "type": "function"
    },
    {
      "inputs": [],
      "name": "owner",
      "outputs": [
        {
          "internalType": "address",
          "name": "",
          "type": "address"
        }
      ],
      "stateMutability": "view",
      "type": "function"
    },
    {
      "inputs": [
        {
          "internalType": "uint256",
          "name": "jobId",
          "type": "uint256"
        }
      ],
      "name": "refundEscrow",
      "outputs": [],
      "stateMutability": "nonpayable",
      "type": "function"
    },
    {
      "inputs": [
        {
          "internalType": "uint256",
          "name": "jobId",
          "type": "uint256"
        }
      ],
      "name": "releaseEscrow",
      "outputs": [],
      "stateMutability": "nonpayable",
      "type": "function"
    },
    {
      "inputs": [],
      "name": "reputationRegistry",
      "outputs": [
        {
          "internalType": "address",
          "name": "",
          "type": "address"
        }
      ],
      "stateMutability": "view",
      "type": "function"
    },
    {
      "inputs": [
        {
          "internalType": "address",
          "name": "_registry",
          "type": "address"
        }
      ],
      "name": "setReputationRegistry",
      "outputs": [],
      "stateMutability": "nonpayable",
      "type": "function"
    },
    {
      "inputs": [
        {
          "internalType": "address",
          "name": "_verifier",
          "type": "address"
        }
      ],
      "name": "setVerifier",
      "outputs": [],
      "stateMutability": "nonpayable",
      "type": "function"
    },
    {
      "inputs": [],
      "name": "verifier",
      "outputs": [
        {
          "internalType": "address",
          "name": "",
          "type": "address"
        }
      ],
      "stateMutability": "view",
      "type": "function"
    }
  ],
  "bytecode": "0x6080604052348015600f57600080fd5b50604051610d10380380610d10833981016040819052602c916081565b600180546001600160a01b039384166001600160a01b031991821617909155600280548216331790556003805492909316911617905560af565b80516001600160a01b0381168114607c57600080fd5b919050565b60008060408385031215609357600080fd5b609a836066565b915060a6602084016066565b90509250929050565b610c52806100be6000396000f3fe608060405234801561001057600080fd5b506004361061009e5760003560e01c80637d19e596116100665780637d19e5961461017a5780638da5cb5b1461019a578063b0856eb1146101ad578063c8db44e3146101c0578063ed653164146101d357600080fd5b8063012f52ee146100a35780632b7ac3f314610114578063356f9dfd1461013f5780633f0ce714146101545780635437988d14610167575b600080fd5b6100f96100b1366004610a73565b6000602081905290815260409020805460018201546002830154600384015460049094015492936001600160a01b039283169391831692909160ff8116916101009091041686565b60405161010b96959493929190610ac4565b60405180910390f35b600154610127906001600160a01b031681565b6040516001600160a01b03909116815260200161010b565b61015261014d366004610a73565b6101e6565b005b610152610162366004610b2e565b6103d6565b610152610175366004610b2e565b61043f565b61018d610188366004610a73565b6104a8565b60405161010b9190610b50565b600254610127906001600160a01b031681565b6101526101bb366004610bb4565b61057a565b600354610127906001600160a01b031681565b6101526101e1366004610a73565b61080a565b600081815260208190526040902060018101546001600160a01b0316331461024e5760405162461bcd60e51b815260206004820152601660248201527513db9b1e4818db1a595b9d0818d85b881c99599d5b9960521b60448201526064015b60405180910390fd5b6000600482015460ff16600281111561026957610269610a8c565b146102aa5760405162461bcd60e51b8152602060048201526011602482015270115cd8dc9bddc81b9bdd08199d5b991959607a1b6044820152606401610245565b6004818101805460ff1916600217908190556001830154600384015460405163a9059cbb60e01b81526001600160a01b03928316948101949094526024840152600092610100909204169063a9059cbb906044016020604051808303816000875af115801561031d573d6000803e3d6000fd5b505050506040513d601f19601f820116820180604052508101906103419190610bfa565b9050806103855760405162461bcd60e51b81526020600482015260126024820152711554d110c81c99599d5b990819985a5b195960721b6044820152606401610245565b600182015460038301546040519081526001600160a01b039091169084907feac97bc1917fcedc984e3d0671d4e83b359890323d5d1c2de32b28d17c356ced906020015b60405180910390a3505050565b6002546001600160a01b0316331461041d5760405162461bcd60e51b815260206004820152600a60248201526927b7363c9037bbb732b960b11b6044820152606401610245565b600380546001600160a01b0319166001600160a01b0392909216919091179055565b6002546001600160a01b031633146104865760405162461bcd60e51b815260206004820152600a60248201526927b7363c9037bbb732b960b11b6044820152606401610245565b600180546001600160a01b0319166001600160a01b0392909216919091179055565b6040805160c081018252600080825260208201819052918101829052606081018290526080810182905260a081019190915260008281526020818152604091829020825160c0810184528154815260018201546001600160a01b0390811693820193909352600280830154909316938101939093526003810154606084015260048101549091608084019160ff169081111561054657610546610a8c565b600281111561055757610557610a8c565b81526004919091015461010090046001600160a01b031660209091015292915050565b6000848152602081905260409020600101546001600160a01b0316156105da5760405162461bcd60e51b8152602060048201526015602482015274457363726f7720616c72656164792065786973747360581b6044820152606401610245565b6000821161062a5760405162461bcd60e51b815260206004820152601d60248201527f416d6f756e74206d7573742062652067726561746572207468616e20300000006044820152606401610245565b6040516323b872dd60e01b8152336004820152306024820152604481018390526000906001600160a01b038316906323b872dd906064016020604051808303816000875af1158015610680573d6000803e3d6000fd5b505050506040513d601f19601f820116820180604052508101906106a49190610bfa565b9050806106ea5760405162461bcd60e51b81526020600482015260146024820152731554d110c81d1c985b9cd9995c8819985a5b195960621b6044820152606401610245565b6040805160c0810182528681523360208083019182526001600160a01b03888116848601908152606085018981526000608087018181528a851660a08901528d82529481905296909620855181559351600180860180549285166001600160a01b0319938416179055915160028087018054929095169190921617909255945160038401559051600483018054949593949193909260ff1990921691849081111561079757610797610a8c565b021790555060a09190910151600490910180546001600160a01b0390921661010002610100600160a81b0319909216919091179055604051838152339086907f4a2cd88ec7a748d5b20b3512d7249c67745777b219009075c745923684e9653d9060200160405180910390a35050505050565b6001546001600160a01b031633146108645760405162461bcd60e51b815260206004820152601960248201527f4f6e6c792076657269666965722063616e2072656c65617365000000000000006044820152606401610245565b600081815260208190526040812090600482015460ff16600281111561088c5761088c610a8c565b146108cd5760405162461bcd60e51b8152602060048201526011602482015270115cd8dc9bddc81b9bdd08199d5b991959607a1b6044820152606401610245565b6004818101805460ff1916600117908190556002830154600384015460405163a9059cbb60e01b81526001600160a01b03928316948101949094526024840152600092610100909204169063a9059cbb906044016020604051808303816000875af1158015610940573d6000803e3d6000fd5b505050506040513d601f19601f820116820180604052508101906109649190610bfa565b9050806109a95760405162461bcd60e51b81526020600482015260136024820152721554d110c81c995b19585cd94819985a5b1959606a1b6044820152606401610245565b6003546001600160a01b031615610a2b576003805460028401549184015460405163475b919b60e01b81526001600160a01b039384166004820152602481019190915291169063475b919b90604401600060405180830381600087803b158015610a1257600080fd5b505af1158015610a26573d6000803e3d6000fd5b505050505b600282015460038301546040519081526001600160a01b039091169084907f6244ed823ca6be0f11bc890c3fafcf3c29cb23420c14243642e930b5e07e6d0a906020016103c9565b600060208284031215610a8557600080fd5b5035919050565b634e487b7160e01b600052602160045260246000fd5b60038110610ac057634e487b7160e01b600052602160045260246000fd5b9052565b8681526001600160a01b038681166020830152851660408201526060810184905260c08101610af66080830185610aa2565b6001600160a01b039290921660a0919091015295945050505050565b80356001600160a01b0381168114610b2957600080fd5b919050565b600060208284031215610b4057600080fd5b610b4982610b12565b9392505050565b600060c0820190508251825260018060a01b03602084015116602083015260018060a01b036040840151166040830152606083015160608301526080830151610b9c6080840182610aa2565b5060a0928301516001600160a01b0316919092015290565b60008060008060808587031215610bca57600080fd5b84359350610bda60208601610b12565b925060408501359150610bef60608601610b12565b905092959194509250565b600060208284031215610c0c57600080fd5b81518015158114610b4957600080fdfea26469706673582212203a1c3d8bcdfe66c77fbd6ac31ce67dd60f3b468e15ceec015edf7208993161a864736f6c634300081e0033",
  "linkReferences": {},
  "deployedLinkReferences": {}
}