{
  "_format": "hh-sol-artifact-1",
  "contractName": "JobBoard",
  "sourceName": "contracts/JobBoard.sol",
  "abi": [
    {
      "inputs": [],
      "name": "ClientCannotBid",
      "type": "error"
    },
    {
      "inputs": [],
      "name": "FreelancerNotAssigned",
      "type": "error"
    },
    {
      "inputs": [],
      "name": "JobDoesNotExist",
      "type": "error"
    },
    {
      "inputs": [],
      "name": "JobNotOpen",
      "type": "error"
    },
    {
      "inputs": [],
      "name": "NotInProgress",
      "type": "error"
    },
    {
      "inputs": [],
      "name": "NotTheClient",
      "type": "error"
    },
    {
      "anonymous": false,
      "inputs": [
        {
          "indexed": true,
          "internalType": "uint256",
          "name": "jobId",
          "type": "uint256"
        },
        {
          "indexed": true,
          "internalType": "address",
          "name": "bidder",
          "type": "address"
        },
        {
          "indexed": false,
          "internalType": "uint256",
          "name": "price",
          "type": "uint256"
        }
      ],
      "name": "BidSubmitted",
      "type": "event"
    },
    {
      "anonymous": false,
      "inputs": [
        {
          "indexed": true,
          "internalType": "uint256",
          "name": "jobId",
          "type": "uint256"
        },
        {
          "indexed": true,
          "internalType": "address",
          "name": "freelancer",
          "type": "address"
        },
        {
          "indexed": false,
          "internalType": "string",
          "name": "deliverable",
          "type": "string"
        }
      ],
      "name": "DeliverableSubmitted",
      "type": "event"
    },
    {
      "anonymous": false,
      "inputs": [
        {
          "indexed": true,
          "internalType": "uint256",
          "name": "jobId",
          "type": "uint256"
        },
        {
          "indexed": true,
          "internalType": "address",
          "name": "freelancer",
          "type": "address"
        }
      ],
      "name": "JobAssigned",
      "type": "event"
    },
    {
      "anonymous": false,
      "inputs": [
        {
          "indexed": true,
          "internalType": "uint256",
          "name": "jobId",
          "type": "uint256"
        }
      ],
      "name": "JobCompleted",
      "type": "event"
    },
    {
      "anonymous": false,
      "inputs": [
        {
          "indexed": true,
          "internalType": "uint256",
          "name": "jobId",
          "type": "uint256"
        },
        {
          "indexed": true,
          "internalType": "address",
          "name": "client",
          "type": "address"
        },
        {
          "indexed": false,
          "internalType": "string",
          "name": "title",
          "type": "string"
        },
        {
          "indexed": false,
          "internalType": "uint256",
          "name": "bounty",
          "type": "uint256"
        }
      ],
      "name": "JobPosted",
      "type": "event"
    },
    {
      "inputs": [
        {
          "internalType": "uint256",
          "name": "jobId",
          "type": "uint256"
        },
        {
          "internalType": "address",
          "name": "freelancer",
          "type": "address"
        }
      ],
      "name": "assignJob",
      "outputs": [],
      "stateMutability": "nonpayable",
      "type": "function"
    },
    {
      "inputs": [
        {
          "internalType": "uint256",
          "name": "",
          "type": "uint256"
        },
        {
          "internalType": "uint256",
          "name": "",
          "type": "uint256"
        }
      ],
      "name": "bids",
      "outputs": [
        {
          "internalType": "address",
          "name": "bidder",
          "type": "address"
        },
        {
          "internalType": "uint256",
          "name": "price",
          "type": "uint256"
        },
        {
          "internalType": "string",
          "name": "proposal",
          "type": "string"
        },
        {
          "internalType": "uint256",
          "name": "submittedAt",
          "type": "uint256"
        }
      ],
      "stateMutability": "view",
      "type": "function"
    },
    {
      "inputs": [
        {
          "internalType": "uint256",
          "name": "",
          "type": "uint256"
        }
      ],
      "name": "deliverables",
      "outputs": [
        {
          "internalType": "string",
          "name": "",
          "type": "string"
        }
      ],
      "stateMutability": "view",
      "type": "function"
    },
    {
      "inputs": [
        {
          "internalType": "uint256",
          "name": "jobId",
          "type": "uint256"
        }
      ],
      "name": "getBids",
      "outputs": [
        {
          "components": [
            {
              "internalType": "address",
              "name": "bidder",
              "type": "address"
            },
            {
              "internalType": "uint256",
              "name": "price",
              "type": "uint256"
            },
            {
              "internalType": "string",
              "name": "proposal",
              "type": "string"
            },
            {
              "internalType": "uint256",
              "name": "submittedAt",
              "type": "uint256"
            }
          ],
          "internalType": "struct JobBoard.Bid[]",
          "name": "",
          "type": "tuple[]"
        }
      ],
      "stateMutability": "view",
      "type": "function"
    },
    {
      "inputs": [
        {
          "internalType": "uint256",
          "name": "jobId",
          "type": "uint256"
        }
      ],
      "name": "getDeliverable",
      "outputs": [
        {
          "internalType": "string",
          "name": "",
          "type": "string"
        }
      ],
      "stateMutability": "view",
      "type": "function"
    },
    {
      "inputs": [
        {
          "internalType": "uint256",
          "name": "jobId",
          "type": "uint256"
        }
      ],
      "name": "getJob",
      "outputs": [
        {
          "components": [
            {
              "internalType": "uint256",
              "name": "id",
              "type": "uint256"
            },
            {
              "internalType": "address",
              "name": "client",
              "type": "address"
            },
            {
              "internalType": "string",
              "name": "title",
              "type": "string"
            },
            {
              "internalType": "string",
              "name": "description",
              "type": "string"
            },
            {
              "internalType": "uint256",
              "name": "bounty",
              "type": "uint256"
            },
            {
              "internalType": "enum JobBoard.JobStatus",
              "name": "status",
              "type": "uint8"
            },
            {
              "internalType": "address",
              "name": "assignedTo",
              "type": "address"
            },
            {
              "internalType": "uint256",
              "name": "createdAt",
              "type": "uint256"
            },
            {
              "internalType": "uint256",
              "name": "deadline",
              "type": "uint256"
            }
          ],
          "internalType": "struct JobBoard.Job",
          "name": "",
          "type": "tuple"
        }
      ],
      "stateMutability": "view",
      "type": "function"
    },
    {
      "inputs": [],
      "name": "jobCounter",
      "outputs": [
        {
          "internalType": "uint256",
          "name": "",
          "type": "uint256"
        }
      ],
      "stateMutability": "view",
      "type": "function"
    },
    {
      "inputs": [
        {
          "internalType": "uint256",
          "name": "",
          "type": "uint256"
        }
      ],
      "name": "jobs",
      "outputs": [
        {
          "internalType": "uint256",
          "name": "id",
          "type": "uint256"
        },
        {
          "internalType": "address",
          "name": "client",
          "type": "address"
        },
        {
          "internalType": "string",
          "name": "title",
          "type": "string"
        },
        {
          "internalType": "string",
          "name": "description",
          "type": "string"
        },
        {
          "internalType": "uint256",
          "name": "bounty",
          "type": "uint256"
        },
        {
          "internalType": "enum JobBoard.JobStatus",
          "name": "status",
          "type": "uint8"
        },
        {
          "internalType": "address",
          "name": "assignedTo",
          "type": "address"
        },
        {
          "internalType": "uint256",
          "name": "createdAt",
          "type": "uint256"
        },
        {
          "internalType": "uint256",
          "name": "deadline",
          "type": "uint256"
        }
      ],
      "stateMutability": "view",
      "type": "function"
    },
    {
      "inputs": [
        {
          "internalType": "uint256",
          "name": "jobId",
          "type": "uint256"
        }
      ],
      "name": "markCompleted",
      "outputs": [],
      "stateMutability": "nonpayable",
      "type": "function"
    },
    {
      "inputs": [
        {
          "internalType": "string",
          "name": "title",
          "type": "string"
        },
        {
          "internalType": "string",
          "name": "description",
          "type": "string"
        },
        {
          "internalType": "uint256",
          "name": "bounty",
          "type": "uint256"
        },
        {
          "internalType": "uint256",
          "name": "deadline",
          "type": "uint256"
        }
      ],
      "name": "postJob",
      "outputs": [
        {
          "internalType": "uint256",
          "name": "",
          "type": "uint256"
        }
      ],
      "stateMutability": "nonpayable",
      "type": "function"
    },
    {
      "inputs": [
        {
          "internalType": "uint256",
          "name": "jobId",
          "type": "uint256"
        },
        {
          "internalType": "uint256",
          "name": "price",
          "type": "uint256"
        },
        {
          "internalType": "string",
          "name": "proposal",
          "type": "string"
        }
      ],
      "name": "submitBid",
      "outputs": [],
      "stateMutability": "nonpayable",
      "type": "function"
    },
    {
      "inputs": [
        {
          "internalType": "uint256",
          "name": "jobId",
          "type": "uint256"
        },
        {
          "internalType": "string",
          "name": "deliverable",
          "type": "string"
        }
      ],
      "name": "submitDeliverable",
      "outputs": [],
      "stateMutability": "nonpayable",
      "type": "function"
    }
  ],
  "bytecode": "0x6080604052348015600f57600080fd5b506117148061001f6000396000f3fe608060405234801561001057600080fd5b50600436106100b45760003560e01c806371bf6bed1161007157806371bf6bed146101695780637b3c4baa1461017c578063bf22c4571461019f578063cac5c512146101bf578063d7ef1860146101d2578063f3a4735a146101e557600080fd5b8063131d9a27146100b957806314c60bdd146100e2578063180aedf3146100f757806350355d761461011f5780635e29172f146101365780636435b4d914610149575b600080fd5b6100cc6100c7366004610fb2565b6101f8565b6040516100d99190611011565b60405180910390f35b6100f56100f03660046110f3565b610326565b005b61010a610105366004610fb2565b6104e9565b6040516100d99998979695949392919061117e565b61012860005481565b6040519081526020016100d9565b6100f56101443660046111fb565b61065a565b61015c610157366004610fb2565b610766565b6040516100d99190611247565b610128610177366004611261565b610800565b61018f61018a3660046112e4565b6109f6565b6040516100d99493929190611306565b6101b26101ad366004610fb2565b610ad2565b6040516100d9919061133e565b6100f56101cd366004610fb2565b610ca7565b61015c6101e0366004610fb2565b610d95565b6100f56101f33660046113f4565b610e37565b606060026000838152602001908152602001600020805480602002602001604051908101604052809291908181526020016000905b8282101561031b576000848152602090819020604080516080810182526004860290920180546001600160a01b031683526001810154938301939093526002830180549293929184019161028090611430565b80601f01602080910402602001604051908101604052809291908181526020018280546102ac90611430565b80156102f95780601f106102ce576101008083540402835291602001916102f9565b820191906000526020600020905b8154815290600101906020018083116102dc57829003601f168201915b505050505081526020016003820154815250508152602001906001019061022d565b505050509050919050565b83600054811061034957604051630fc5fb8d60e41b815260040160405180910390fd5b60008581526001602052604081206005015460ff16600381111561036f5761036f611146565b1461038d5760405163d76ebd0f60e01b815260040160405180910390fd5b600085815260016020819052604090912001546001600160a01b031633036103c85760405163087bf3c960e41b815260040160405180910390fd5b600260008681526020019081526020016000206040518060800160405280336001600160a01b0316815260200186815260200185858080601f01602080910402602001604051908101604052809392919081815260200183838082843760009201829052509385525050426020938401525083546001808201865594825290829020835160049092020180546001600160a01b0319166001600160a01b0390921691909117815590820151928101929092556040810151909190600282019061049190826114cf565b50606082015181600301555050336001600160a01b0316857f177554f051f4aa1f0d0310334854b429baeecdb5a96bc329a26fd0cb7c8a7be3866040516104da91815260200190565b60405180910390a35050505050565b60016020819052600091825260409091208054918101546002820180546001600160a01b03909216929161051c90611430565b80601f016020809104026020016040519081016040528092919081815260200182805461054890611430565b80156105955780601f1061056a57610100808354040283529160200191610595565b820191906000526020600020905b81548152906001019060200180831161057857829003601f168201915b5050505050908060030180546105aa90611430565b80601f01602080910402602001604051908101604052809291908181526020018280546105d690611430565b80156106235780601f106105f857610100808354040283529160200191610623565b820191906000526020600020905b81548152906001019060200180831161060657829003601f168201915b505050506004830154600584015460068501546007909501549394919360ff821693506101009091046001600160a01b0316919089565b82600054811061067d57604051630fc5fb8d60e41b815260040160405180910390fd5b60008481526001602052604090206005015461010090046001600160a01b031633146106bc57604051633ab7fc6f60e21b815260040160405180910390fd5b600160008581526001602052604090206005015460ff1660038111156106e4576106e4611146565b1461070257604051631f3a138160e11b815260040160405180910390fd5b600084815260036020526040902061071b83858361158e565b50336001600160a01b0316847feeab9438896c7aabe4c5acc2a1fb0b954f4a4b2c8afe47b09ae4781278df10fa8585604051610758929190611677565b60405180910390a350505050565b6003602052600090815260409020805461077f90611430565b80601f01602080910402602001604051908101604052809291908181526020018280546107ab90611430565b80156107f85780601f106107cd576101008083540402835291602001916107f8565b820191906000526020600020905b8154815290600101906020018083116107db57829003601f168201915b505050505081565b600080548190818061081183611693565b919050559050604051806101200160405280828152602001336001600160a01b0316815260200189898080601f016020809104026020016040519081016040528093929190818152602001838380828437600092019190915250505090825250604080516020601f8a01819004810282018101909252888152918101919089908990819084018382808284376000920182905250938552505050602080830188905260408084018390526060840183905242608085015260a0909301879052848252600180825291839020845181559084015191810180546001600160a01b0319166001600160a01b039093169290921790915590820151600282019061091890826114cf565b506060820151600382019061092d90826114cf565b506080820151600482015560a082015160058201805460ff1916600183600381111561095b5761095b611146565b021790555060c08201518160050160016101000a8154816001600160a01b0302191690836001600160a01b0316021790555060e082015181600601556101008201518160070155905050336001600160a01b0316817fd347156c0e050f531434f3eac5fc2137040ab077ca656f465275ebe566aaf1158a8a886040516109e3939291906116ba565b60405180910390a3979650505050505050565b60026020528160005260406000208181548110610a1257600080fd5b60009182526020909120600490910201805460018201546002830180546001600160a01b03909316955090935090610a4990611430565b80601f0160208091040260200160405190810160405280929190818152602001828054610a7590611430565b8015610ac25780601f10610a9757610100808354040283529160200191610ac2565b820191906000526020600020905b815481529060010190602001808311610aa557829003601f168201915b5050505050908060030154905084565b610ada610f43565b60008281526001602081815260409283902083516101208101855281548152928101546001600160a01b0316918301919091526002810180549293919291840191610b2490611430565b80601f0160208091040260200160405190810160405280929190818152602001828054610b5090611430565b8015610b9d5780601f10610b7257610100808354040283529160200191610b9d565b820191906000526020600020905b815481529060010190602001808311610b8057829003601f168201915b50505050508152602001600382018054610bb690611430565b80601f0160208091040260200160405190810160405280929190818152602001828054610be290611430565b8015610c2f5780601f10610c0457610100808354040283529160200191610c2f565b820191906000526020600020905b815481529060010190602001808311610c1257829003601f168201915b505050918352505060048201546020820152600582015460409091019060ff166003811115610c6057610c60611146565b6003811115610c7157610c71611146565b8152600582015461010090046001600160a01b031660208201526006820154604082015260079091015460609091015292915050565b806000548110610cca57604051630fc5fb8d60e41b815260040160405180910390fd5b6000828152600160208190526040909120015482906001600160a01b03163314610d0757604051637f6a4c2960e11b815260040160405180910390fd5b600160008481526001602052604090206005015460ff166003811115610d2f57610d2f611146565b14610d4d57604051631f3a138160e11b815260040160405180910390fd5b600083815260016020526040808220600501805460ff191660021790555184917f02244c8529cb95e213ee542e76e7776342b3dabd10203d01472bbf4441be892991a2505050565b6000818152600360205260409020805460609190610db290611430565b80601f0160208091040260200160405190810160405280929190818152602001828054610dde90611430565b8015610e2b5780601f10610e0057610100808354040283529160200191610e2b565b820191906000526020600020905b815481529060010190602001808311610e0e57829003601f168201915b50505050509050919050565b816000548110610e5a57604051630fc5fb8d60e41b815260040160405180910390fd5b6000838152600160208190526040909120015483906001600160a01b03163314610e9757604051637f6a4c2960e11b815260040160405180910390fd5b60008481526001602052604081206005015460ff166003811115610ebd57610ebd611146565b14610edb5760405163d76ebd0f60e01b815260040160405180910390fd5b600084815260016020819052604080832060050180546001600160a81b0319166101006001600160a01b03891690810291909117909317905551909186917f3738a681a43a0b6a554742a08bae57e0215e8a774217dc2e7de6c9411b6d0ddc9190a350505050565b6040518061012001604052806000815260200160006001600160a01b0316815260200160608152602001606081526020016000815260200160006003811115610f8e57610f8e611146565b815260200160006001600160a01b0316815260200160008152602001600081525090565b600060208284031215610fc457600080fd5b5035919050565b6000815180845260005b81811015610ff157602081850181015186830182015201610fd5565b506000602082860101526020601f19601f83011685010191505092915050565b6000602082016020835280845180835260408501915060408160051b86010192506020860160005b8281101561109e57603f19878603018452815160018060a01b0381511686526020810151602087015260408101516080604088015261107b6080880182610fcb565b606092830151979092019690965294506020938401939190910190600101611039565b50929695505050505050565b60008083601f8401126110bc57600080fd5b50813567ffffffffffffffff8111156110d457600080fd5b6020830191508360208285010111156110ec57600080fd5b9250929050565b6000806000806060858703121561110957600080fd5b8435935060208501359250604085013567ffffffffffffffff81111561112e57600080fd5b61113a878288016110aa565b95989497509550505050565b634e487b7160e01b600052602160045260246000fd5b6004811061117a57634e487b7160e01b600052602160045260246000fd5b9052565b8981526001600160a01b0389166020820152610120604082018190526000906111a99083018a610fcb565b82810360608401526111bb818a610fcb565b9150508660808301526111d160a083018761115c565b6001600160a01b039490941660c082015260e0810192909252610100909101529695505050505050565b60008060006040848603121561121057600080fd5b83359250602084013567ffffffffffffffff81111561122e57600080fd5b61123a868287016110aa565b9497909650939450505050565b60208152600061125a6020830184610fcb565b9392505050565b6000806000806000806080878903121561127a57600080fd5b863567ffffffffffffffff81111561129157600080fd5b61129d89828a016110aa565b909750955050602087013567ffffffffffffffff8111156112bd57600080fd5b6112c989828a016110aa565b979a9699509760408101359660609091013595509350505050565b600080604083850312156112f757600080fd5b50508035926020909101359150565b60018060a01b038516815283602082015260806040820152600061132d6080830185610fcb565b905082606083015295945050505050565b60208152815160208201526000602083015161136560408401826001600160a01b03169052565b5060408301516101206060840152611381610140840182610fcb565b90506060840151601f1984830301608085015261139e8282610fcb565b915050608084015160a084015260a08401516113bd60c085018261115c565b5060c08401516001600160a01b03811660e08501525060e08401516101008401526101008401516101208401528091505092915050565b6000806040838503121561140757600080fd5b8235915060208301356001600160a01b038116811461142557600080fd5b809150509250929050565b600181811c9082168061144457607f821691505b60208210810361146457634e487b7160e01b600052602260045260246000fd5b50919050565b634e487b7160e01b600052604160045260246000fd5b601f8211156114ca57806000526020600020601f840160051c810160208510156114a75750805b601f840160051c820191505b818110156114c757600081556001016114b3565b50505b505050565b815167ffffffffffffffff8111156114e9576114e961146a565b6114fd816114f78454611430565b84611480565b6020601f82116001811461153157600083156115195750848201515b600019600385901b1c1916600184901b1784556114c7565b600084815260208120601f198516915b828110156115615787850151825560209485019460019092019101611541565b508482101561157f5786840151600019600387901b60f8161c191681555b50505050600190811b01905550565b67ffffffffffffffff8311156115a6576115a661146a565b6115ba836115b48354611430565b83611480565b6000601f8411600181146115ee57600085156115d65750838201355b600019600387901b1c1916600186901b1783556114c7565b600083815260209020601f19861690835b8281101561161f57868501358255602094850194600190920191016115ff565b508682101561163c5760001960f88860031b161c19848701351681555b505060018560011b0183555050505050565b81835281816020850137506000828201602090810191909152601f909101601f19169091010190565b60208152600061168b60208301848661164e565b949350505050565b6000600182016116b357634e487b7160e01b600052601160045260246000fd5b5060010190565b6040815260006116ce60408301858761164e565b905082602083015294935050505056fea264697066735822122021b6caee55f792c270d9fbf05e27dbcd1f95a7f8904dac387971cf74a1c5e62564736f6c634300081e0033",
  "linkReferences": {},
  "deployedLinkReferences": {}
}