{
  "_format": "hh-sol-artifact-1",
  "contractName": "ReputationRegistry",
  "sourceName": "contracts/ReputationRegistry.sol",
  "abi": [
    {
      "inputs": [],
      "stateMutability": "nonpayable",
      "type": "constructor"
    },
    {
      "anonymous": false,
      "inputs": [
        {
          "indexed": true,
          "internalType": "address",
          "name": "agent",
          "type": "address"
        },
        {
          "indexed": false,
          "internalType": "string",
          "name": "passportDID",
          "type": "string"
        }
      ],
      "name": "AgentRegistered",
      "type": "event"
    },
    {
      "anonymous": false,
      "inputs": [
        {
          "indexed": true,
          "internalType": "address",
          "name": "agent",
          "type": "address"
        },
        {
          "indexed": false,
          "internalType": "uint256",
          "name": "newScore",
          "type": "uint256"
        },
        {
          "indexed": false,
          "internalType": "uint256",
          "name": "jobsCompleted",
          "type": "uint256"
        }
      ],
      "name": "ReputationUpdated",
      "type": "event"
    },
    {
      "inputs": [
        {
          "internalType": "string",
          "name": "",
          "type": "string"
        }
      ],
      "name": "didToAddress",
      "outputs": [
        {
          "internalType": "address",
          "name": "",
          "type": "address"
        }
      ],
      "stateMutability": "view",
      "type": "function"
    },
    {
      "inputs": [],
      "name": "escrowContract",
      "outputs": [
        {
          "internalType": "address",
          "name": "",
          "type": "address"
        }
      ],
      "stateMutability": "view",
      "type": "function"
    },
    {
      "inputs": [
        {
          "internalType": "address",
          "name": "agent",
          "type": "address"
        }
      ],
      "name": "getProfile",
      "outputs": [
        {
          "components": [
            {
              "internalType": "address",
              "name": "agent",
              "type": "address"
            },
            {
              "internalType": "string",
              "name": "passportDID",
              "type": "string"
            },
            {
              "internalType": "uint256",
              "name": "jobsCompleted",
              "type": "uint256"
            },
            {
              "internalType": "uint256",
              "name": "totalEarned",
              "type": "uint256"
            },
            {
              "internalType": "uint256",
              "name": "reputationScore",
              "type": "uint256"
            },
            {
              "internalType": "bool",
              "name": "registered",
              "type": "bool"
            }
          ],
          "internalType": "struct ReputationRegistry.AgentProfile",
          "name": "",
          "type": "tuple"
        }
      ],
      "stateMutability": "view",
      "type": "function"
    },
    {
      "inputs": [
        {
          "internalType": "string",
          "name": "did",
          "type": "string"
        }
      ],
      "name": "getProfileByDID",
      "outputs": [
        {
          "components": [
            {
              "internalType": "address",
              "name": "agent",
              "type": "address"
            },
            {
              "internalType": "string",
              "name": "passportDID",
              "type": "string"
            },
            {
              "internalType": "uint256",
              "name": "jobsCompleted",
              "type": "uint256"
            },
            {
              "internalType": "uint256",
              "name": "totalEarned",
              "type": "uint256"
            },
            {
              "internalType": "uint256",
              "name": "reputationScore",
              "type": "uint256"
            },
            {
              "internalType": "bool",
              "name": "registered",
              "type": "bool"
            }
          ],
          "internalType": "struct ReputationRegistry.AgentProfile",
          "name": "",
          "type": "tuple"
        }
      ],
      "stateMutability": "view",
      "type": "function"
    },
    {
      "inputs": [],
      "name": "owner",
      "outputs": [
        {
          "internalType": "address",
          "name": "",
          "type": "address"
        }
      ],
      "stateMutability": "view",
      "type": "function"
    },
    {
      "inputs": [
        {
          "internalType": "address",
          "name": "",
          "type": "address"
        }
      ],
      "name": "profiles",
      "outputs": [
        {
          "internalType": "address",
          "name": "agent",
          "type": "address"
        },
        {
          "internalType": "string",
          "name": "passportDID",
          "type": "string"
        },
        {
          "internalType": "uint256",
          "name": "jobsCompleted",
          "type": "uint256"
        },
        {
          "internalType": "uint256",
          "name": "totalEarned",
          "type": "uint256"
        },
        {
          "internalType": "uint256",
          "name": "reputationScore",
          "type": "uint256"
        },
        {
          "internalType": "bool",
          "name": "registered",
          "type": "bool"
        }
      ],
      "stateMutability": "view",
      "type": "function"
    },
    {
      "inputs": [
        {
          "internalType": "address",
          "name": "agent",
          "type": "address"
        },
        {
          "internalType": "uint256",
          "name": "amountEarned",
          "type": "uint256"
        }
      ],
      "name": "recordCompletion",
      "outputs": [],
      "stateMutability": "nonpayable",
      "type": "function"
    },
    {
      "inputs": [
        {
          "internalType": "string",
          "name": "passportDID",
          "type": "string"
        }
      ],
      "name": "registerAgent",
      "outputs": [],
      "stateMutability": "nonpayable",
      "type": "function"
    },
    {
      "inputs": [
        {
          "internalType": "address",
          "name": "_escrow",
          "type": "address"
        }
      ],
      "name": "setEscrowContract",
      "outputs": [],
      "stateMutability": "nonpayable",
      "type": "function"
    }
  ],
  "bytecode": "0x6080604052348015600f57600080fd5b50600380546001600160a01b03191633179055610dc4806100316000396000f3fe608060405234801561001057600080fd5b50600436106100935760003560e01c80638da5cb5b116100665780638da5cb5b14610135578063bbe1562714610148578063e42a96e71461016d578063f42375b514610180578063fc622c0b1461019357600080fd5b80630f53a470146100985780632d2a9585146100c1578063475b919b146100d65780636ba1f4a4146100e9575b600080fd5b6100ab6100a6366004610962565b6101a6565b6040516100b891906109ca565b60405180910390f35b6100d46100cf366004610a2e565b6102a5565b005b6100d46100e4366004610aa2565b6104dd565b61011d6100f7366004610ae2565b80516020818301810180516001825292820191909301209152546001600160a01b031681565b6040516001600160a01b0390911681526020016100b8565b60035461011d906001600160a01b031681565b61015b610156366004610962565b610662565b6040516100b896959493929190610b9b565b60025461011d906001600160a01b031681565b6100d461018e366004610962565b61072d565b6100ab6101a1366004610a2e565b610796565b6101ae610905565b6001600160a01b0380831660009081526020818152604091829020825160c0810190935280549093168252600183018054929392918401916101ef90610be6565b80601f016020809104026020016040519081016040528092919081815260200182805461021b90610be6565b80156102685780601f1061023d57610100808354040283529160200191610268565b820191906000526020600020905b81548152906001019060200180831161024b57829003601f168201915b505050918352505060028201546020820152600382015460408201526004820154606082015260059091015460ff16151560809091015292915050565b3360009081526020819052604090206005015460ff16156103025760405162461bcd60e51b8152602060048201526012602482015271105b1c9958591e481c9959da5cdd195c995960721b60448201526064015b60405180910390fd5b60006001600160a01b03166001838360405161031f929190610c20565b908152604051908190036020019020546001600160a01b0316146103785760405162461bcd60e51b815260206004820152601060248201526f11125108185b1c9958591e481d5cd95960821b60448201526064016102f9565b6040518060c00160405280336001600160a01b0316815260200183838080601f0160208091040260200160405190810160405280939291908181526020018383808284376000920182905250938552505050602080830182905260408084018390526064606085015260016080909401849052338352828252909120835181546001600160a01b0319166001600160a01b039091161781559083015190918201906104239082610c7f565b506040828101516002830155606083015160038301556080830151600483015560a0909201516005909101805460ff19169115159190911790555133906001906104709085908590610c20565b90815260405190819003602001812080546001600160a01b03939093166001600160a01b03199093169290921790915533907fda816ca2fc37b9eecec62ae8263008ec6be1afb38dc28bc9c7c51d7e348da9c2906104d19085908590610d3e565b60405180910390a25050565b6002546001600160a01b031633148061050057506003546001600160a01b031633145b61053d5760405162461bcd60e51b815260206004820152600e60248201526d139bdd08185d5d1a1bdc9a5e995960921b60448201526064016102f9565b6001600160a01b03821660009081526020819052604090206005015460ff1661059f5760405162461bcd60e51b81526020600482015260146024820152731059d95b9d081b9bdd081c9959da5cdd195c995960621b60448201526064016102f9565b6001600160a01b038216600090815260208190526040812060028101805491926001926105cd908490610d6d565b92505081905550818160030160008282546105e89190610d6d565b92505081905550600a8160040160008282546106049190610d6d565b9091555050600481015460028201546040516001600160a01b038616927f5b88a2e3fc1a53234357ab78c104df11c33ccfa79886793654565ad70b8afb6e9261065592918252602082015260400190565b60405180910390a2505050565b600060208190529081526040902080546001820180546001600160a01b03909216929161068e90610be6565b80601f01602080910402602001604051908101604052809291908181526020018280546106ba90610be6565b80156107075780601f106106dc57610100808354040283529160200191610707565b820191906000526020600020905b8154815290600101906020018083116106ea57829003601f168201915b505050506002830154600384015460048501546005909501549394919390925060ff1686565b6003546001600160a01b031633146107745760405162461bcd60e51b815260206004820152600a60248201526927b7363c9037bbb732b960b11b60448201526064016102f9565b600280546001600160a01b0319166001600160a01b0392909216919091179055565b61079e610905565b6000600184846040516107b2929190610c20565b908152604051908190036020019020546001600160a01b031690508061080a5760405162461bcd60e51b815260206004820152600d60248201526c111251081b9bdd08199bdd5b99609a1b60448201526064016102f9565b6001600160a01b0380821660009081526020818152604091829020825160c08101909352805490931682526001830180549293929184019161084b90610be6565b80601f016020809104026020016040519081016040528092919081815260200182805461087790610be6565b80156108c45780601f10610899576101008083540402835291602001916108c4565b820191906000526020600020905b8154815290600101906020018083116108a757829003601f168201915b505050918352505060028201546020820152600382015460408201526004820154606082015260059091015460ff1615156080909101529150505b92915050565b6040518060c0016040528060006001600160a01b03168152602001606081526020016000815260200160008152602001600081526020016000151581525090565b80356001600160a01b038116811461095d57600080fd5b919050565b60006020828403121561097457600080fd5b61097d82610946565b9392505050565b6000815180845260005b818110156109aa5760208185018101518683018201520161098e565b506000602082860101526020601f19601f83011685010191505092915050565b602080825282516001600160a01b03168282015282015160c060408301526000906109f860e0840182610984565b90506040840151606084015260608401516080840152608084015160a084015260a0840151151560c08401528091505092915050565b60008060208385031215610a4157600080fd5b823567ffffffffffffffff811115610a5857600080fd5b8301601f81018513610a6957600080fd5b803567ffffffffffffffff811115610a8057600080fd5b856020828401011115610a9257600080fd5b6020919091019590945092505050565b60008060408385031215610ab557600080fd5b610abe83610946565b946020939093013593505050565b634e487b7160e01b600052604160045260246000fd5b600060208284031215610af457600080fd5b813567ffffffffffffffff811115610b0b57600080fd5b8201601f81018413610b1c57600080fd5b803567ffffffffffffffff811115610b3657610b36610acc565b604051601f8201601f19908116603f0116810167ffffffffffffffff81118282101715610b6557610b65610acc565b604052818152828201602001861015610b7d57600080fd5b81602084016020830137600091810160200191909152949350505050565b6001600160a01b038716815260c060208201819052600090610bbf90830188610984565b905085604083015284606083015283608083015282151560a0830152979650505050505050565b600181811c90821680610bfa57607f821691505b602082108103610c1a57634e487b7160e01b600052602260045260246000fd5b50919050565b8183823760009101908152919050565b601f821115610c7a57806000526020600020601f840160051c81016020851015610c575750805b601f840160051c820191505b81811015610c775760008155600101610c63565b50505b505050565b815167ffffffffffffffff811115610c9957610c99610acc565b610cad81610ca78454610be6565b84610c30565b6020601f821160018114610ce15760008315610cc95750848201515b600019600385901b1c1916600184901b178455610c77565b600084815260208120601f198516915b82811015610d115787850151825560209485019460019092019101610cf1565b5084821015610d2f5786840151600019600387901b60f8161c191681555b50505050600190811b01905550565b60208152816020820152818360408301376000818301604090810191909152601f909201601f19160101919050565b808201808211156108ff57634e487b7160e01b600052601160045260246000fdfea264697066735822122028b1d68e783d8359f8df37e64477f3394d2a159bfb233bc4de99e37f857cf2a864736f6c634300081e0033",
  "linkReferences": {},
  "deployedLinkReferences": {}
}